:020000040800F2
:10000000005000209D4A00085D05000861050008B9
:1000100065050008690500086D050008000000007E
:10002000000000000000000000000000311F000878
:100030007105000800000000D11F000875050008C8
:10004000E54A0008E54A0008E54A0008E54A0008D4
:10005000E54A0008E54A0008E54A0008E54A0008C4
:10006000E54A0008E54A0008E54A0008E54A0008B4
:10007000E54A0008E54A0008E54A0008E54A0008A4
:10008000E54A0008E54A0008E54A0008E54A000894
:10009000E54A0008E54A0008E54A0008E54A000884
:1000A000E54A0008E54A0008E54A0008E54A000874
:1000B000E54A0008E54A00087D050008E54A000811
:1000C000E54A0008E54A0008E54A0008E54A000854
:1000D000E54A00088D050008E54A0008E54A0008E1
:1000E000E54A0008E54A0008E54A0008000000006B
:1000F0000000000000000000000000000000000000
:0C01000000000000000000005FF808F1A3
:1001100010B5054C237833B9044B13B10448AFF341
:1001200000800123237010BD70000020000000003B
:10013000945A000808B5034B1BB103490348AFF3B9
:10014000008008BD0000000074000020945A0008E0
:100150004FF0FF0C1CEAD0521EBF1CEAD15392EAAA
:100160000C0F93EA0C0F6FD01A4480EA010C400286
:1001700018BF5FEA41211ED04FF0006343EA5010E0
:1001800043EA5111A0FB01310CF00040B1F5000F22
:100190003EBF490041EAD3715B0040EA010062F1D1
:1001A0007F02FD2A1DD8B3F1004F40EBC25008BFBB
:1001B00020F00100704790F0000F0CF0004C08BFD9
:1001C00049024CEA502040EA51207F3AC2BFD2F1A6
:1001D000FF0340EAC250704740F400004FF00003B4
:1001E000013A5DDC12F1190FDCBF00F000407047EE
:1001F000C2F10002410021FA02F1C2F1200200FA2C
:1002000002FC5FEA310040F1000053EA4C0308BFF2
:1002100020EADC70704792F0000F00F0004C02BF43
:10022000400010F4000F013AF9D040EA0C0093F0BE
:10023000000F01F0004C02BF490011F4000F013B18
:10024000F9D041EA0C018FE70CEAD15392EA0C0F86
:1002500018BF93EA0C0F0AD030F0004C18BF31F0F1
:10026000004CD8D180EA010000F00040704790F0C7
:10027000000F17BF90F0004F084691F0000F91F06B
:10028000004F14D092EA0C0F01D142020FD193EA31
:100290000C0F03D14B0218BF084608D180EA0100B9
:1002A00000F0004040F0FE4040F40000704740F095
:1002B000FE4040F4400070474FF0FF0C1CEAD05263
:1002C0001EBF1CEAD15392EA0C0F93EA0C0F69D0BF
:1002D000A2EB030280EA010C49024FEA402037D02A
:1002E0004FF0805343EA111143EA10130CF0004021
:1002F0008B4238BF5B0042F17D024FF4000C8B4211
:1003000024BF5B1A40EA0C00B3EB510F24BFA3EBF0
:10031000510340EA5C00B3EB910F24BFA3EB9103C0
:1003200040EA9C00B3EBD10F24BFA3EBD10340EA1A
:10033000DC001B0118BF5FEA1C1CE0D1FD2A3FF660
:1003400050AF8B4240EBC25008BF20F00100704715
:100350000CF0004C4CEA50207F32C2BFD2F1FF03B8
:1003600040EAC250704740F400004FF00003013AE9
:1003700037E792F0000F00F0004C02BF400010F48D
:10038000000F013AF9D040EA0C0093F0000F01F0A1
:10039000004C02BF490011F4000F013BF9D041EAC3
:1003A0000C0195E70CEAD15392EA0C0F08D14202F6
:1003B0007FF47DAF93EA0C0F7FF470AF084676E7C9
:1003C00093EA0C0F04D14B023FF44CAF08466EE7A2
:1003D00030F0004C18BF31F0004CCAD130F0004270
:1003E0007FF45CAF31F000437FF43CAF5FE700BFC8
:1003F00008B50268024B9A4201D100F0EDFD08BD3C
:1004000000080040FEE700BF00B595B001220A9247
:100410004FF480330B9300210C910E920222119223
:1004200012934FF4A01313930AA800F0FDFD18B126
:100430001B48A221FFF7E6FF0F2305930221069137
:10044000002307934FF480620892099305A801F0F6
:1004500023F818B11248B021FFF7D4FF022301930B
:100460004FF48043039301A801F01CF918B10C4824
:10047000B721FFF7C7FF01F0D1F80A4BA3FB00300B
:10048000800901F0B5FB042001F0C8FB4FF0FF30FC
:100490000F21002201F06EFB15B05DF804FB00BFD8
:1004A000FC5A0008D34D621008B500F083FDFFF739
:1004B000ABFF02F071FC02F0F5FC02F0A5FC02F0CB
:1004C00083FD02F031FA00F025F802F0E7F9FEE7CB
:1004D00008B502F0CDFA02F0E3FA02F025FB02F0D3
:1004E00049FCF6E700B583B00C238DF807300120F6
:1004F00002F0AEFD02A90F2301F8013D4FF6FF7394
:100500000122034800F0EEFB642002F0E7F9EBE77C
:100510008448002070B58AB00D4C05AD26460FCE3C
:100520000FC533682B60002105A802F0BDF9094B07
:1005300018606D4614340FCC0FC523682B60002162
:10054000684602F0B1F9044B18600AB070BD00BFF4
:10055000AC5A0008344800202C480020704700BFE7
:10056000FEE700BFFEE700BFFEE700BFFEE700BFFB
:10057000704700BF08B502F0B9F908BD08B50248D8
:1005800000F018F908BD00BFC448002008B50248B3
:1005900000F07AFC08BD00BF8448002000B583B09D
:1005A000244B9A6942F001029A619A6902F00102B1
:1005B0000092009ADA6942F08052DA61DB6903F056
:1005C00080530193019B032001F0C2FA6FF00B00EE
:1005D00000210A4601F0CEFA6FF00A0000210A4617
:1005E00001F0C8FA6FF0090000210A4601F0C2FAD2
:1005F0006FF0040000210A4601F0BCFA6FF003001E
:1006000000210A4601F0B6FA6FF001000F21002226
:1006100001F0B0FA4FF0FF300F21002201F0AAFAEA
:10062000054A536823F0E06343F00073536003B05E
:100630005DF804FB0010024000000140002800F0BB
:10064000A08038B5044690F83C3013F0FF0F04D179
:10065000002380F83D3002F0F7FB022384F83C30A1
:100660002268136823F0020313602268136843F0C2
:100670000103136000F0BCFC05460BE000F0B8FC81
:10068000401B0A2806D9032084F83C00002384F884
:100690003D3038BD23685A6812F0010FEED05A6819
:1006A00012F0010F5ED0A269012A01D1802200E080
:1006B0000022E169012902D142F0400201E022F06A
:1006C0004002216A012902D142F0200201E022F019
:1006D0002002616A012902D142F0100201E022F0F9
:1006E0001002A16A012902D142F0080201E022F0C1
:1006F0000802E16A012902D142F0040101E022F07E
:1007000004011A6822F0FC020A431A602168A268F8
:10071000E3681A4323691A4363691A436368013B18
:100720001343CB612268136823F00103136000F0C8
:100730005FFC05460BE000F05BFC401B0A2806D975
:10074000032084F83C00002384F83D3038BD236842
:100750005A6812F0010FEED15B6813F0010F03D05D
:10076000002302E0002300E001232BB100202064DD
:10077000012384F83C3038BD042384F83C30012048
:1007800038BD0120704700BF704700BF0268D368C2
:1007900043F00103D3600268136843F00103136060
:1007A00000207047704700BF704700BF704700BF10
:1007B000704700BF10B5044603681A6912F0020FB3
:1007C00017D0DA6812F0020F13D06FF002021A612C
:1007D0000123037703689B6913F0030F02D0FFF72F
:1007E000E3FF04E0FFF7DEFF2046FFF7DFFF002313
:1007F000237723681A6912F0040F19D0DA6812F00F
:10080000040F15D06FF004021A61022323772368C6
:100810009B6913F4407F03D02046FFF7C5FF05E036
:100820002046FFF7BFFF2046FFF7C0FF00232377D6
:1008300023681A6912F0080F19D0DA6812F0080F4D
:1008400015D06FF008021A61042323772368DB694F
:1008500013F0030F03D02046FFF7A6FF05E0204664
:10086000FFF7A0FF2046FFF7A1FF002323772368AF
:100870001A6912F0100F19D0DA6812F0100F15D0A3
:100880006FF010021A61082323772368DB6913F4E1
:10089000407F03D02046FFF787FF05E02046FFF7A3
:1008A00081FF2046FFF782FF0023237723681A6920
:1008B00012F0010F09D0DA6812F0010F05D06FF0C5
:1008C00001021A612046FFF793FD23681A6912F0AE
:1008D000800F09D0DA6812F0800F05D06FF0800227
:1008E0001A61204600F076F823681A6912F0400F6A
:1008F00009D0DA6812F0400F05D06FF040021A619B
:100900002046FFF755FF23681A6912F0200F09D01F
:10091000DA6812F0200F05D06FF020021A6120462D
:1009200000F056F810BD00BF03681A4A90420AD082
:10093000B0F1804F07D0A2F59432904203D002F577
:100940008062904203D123F070034A681343114A36
:1009500090420AD0B0F1804F07D0A2F59432904275
:1009600003D002F58062904203D123F44073CA6839
:10097000134323F080034A69134303608B68C36207
:100980000B688362034B984201D10B690363012317
:1009900043617047002C0140C0B110B5044690F887
:1009A0003D3013F0FF0F04D1002380F83C30FFF7F7
:1009B000EBFE022384F83D30214651F8040BFFF78B
:1009C000B3FF012384F83D30002010BD01207047A3
:1009D000704700BF704700BF0268D36823F490736C
:1009E000D3600268536923F001035361202380F828
:1009F0003A30704790F83930DBB2212B2AD1836826
:100A0000B3F5805F0FD1036A02681B88C3F3080344
:100A1000536003691BB9036A0233036209E0036A86
:100A20000133036205E00268036A591C01621B7806
:100A30005360C38C013B9BB2C3846BB90268D3681B
:100A400023F08003D3600268D36843F04003D3608F
:100A50000020704702207047002070472DE9F843BE
:100A6000814601680B6923F44052C36813430B614C
:100A7000816803691943436919430068C26822F415
:100A8000B05323F00C030B43C360D9F800104B693B
:100A900023F44072D9F8183013434B61D9F8005051
:100AA0005B4B9D4259D100F0CFFD00EB800000EB85
:100AB0008000D9F80440A400B0FBF4F4554EA6FB26
:100AC00004346409240100F0BFFD00EB800000EB5A
:100AD0008000D9F804309B00B0FBF3F700F0B4FDC0
:100AE00000EB800000EB8000D9F804309B00B0FBE5
:100AF000F3F3A6FB03235B094FF0640808FB1373B1
:100B00001B013233A6FB03235B0903F0F0031C44F3
:100B100000F09AFD00EB800000EB8000D9F8043073
:100B20009B00B0FBF3F700F08FFD00EB800000EBC3
:100B30008000D9F804309B00B0FBF3F3A6FB03233D
:100B40005B0908FB13731B013233A6FB0323C3F3BA
:100B500043131C44AC60BDE8F88300F065FD00EB76
:100B6000800000EB8000D9F80440A400B0FBF4F44E
:100B7000284EA6FB04346409240100F055FD00EB67
:100B8000800000EB8000D9F804309B00B0FBF3F745
:100B900000F04AFD00EB800000EB8000D9F8043043
:100BA0009B00B0FBF3F3A6FB03235B094FF0640843
:100BB00008FB13731B013233A6FB03235B0903F00D
:100BC000F0031C4400F030FD00EB800000EB8000DF
:100BD000D9F804309B00B0FBF3F700F025FD00EBE3
:100BE000800000EB8000D9F804309B00B0FBF3F3E9
:100BF000A6FB03235B0908FB13731B013233A6FB1F
:100C00000323C3F343131C44AC60BDE8F88300BF67
:100C1000003801401F85EB512DE9F04106460C4696
:100C200017469846069D1EE0B5F1FF3F1BD02DB13B
:100C300000F0DEF9C8EB0000A84214D93268D3688E
:100C400023F4D073D3603268536923F001035361F6
:100C5000202386F8393086F83A30002386F8383079
:100C60000320BDE8F08133681B682340A34214BF12
:100C700000230123BB42D7D00020BDE8F08100BF94
:100C800068B310B5044690F8393013F0FF0F04D163
:100C9000002380F8383002F023F9242384F8393017
:100CA0002268D36823F40053D3602046FFF7D6FEB2
:100CB0002268136923F4904313612268536923F077
:100CC0002A0353612268D36843F40053D3600020A1
:100CD000E063202384F8393084F83A3010BD0120D5
:100CE000704700BF2DE9F04182B004461E4690F8DF
:100CF0003930DBB2202B54D10D469046002952D01A
:100D0000002A52D090F83830012B50D0012380F8BF
:100D100038300023C363212380F8393000F068F9AC
:100D20000746A4F82480A4F8268026E0E38C013B43
:100D30009BB2E384A368B3F5805F12D1009620468E
:100D4000802100223B46FFF767FF90BB22682B887B
:100D5000C3F30803536023690BB902350DE0013575
:100D60000BE000962046802100223B46FFF754FF0F
:100D700008BB23682A785A600135E38C9BB2002BAC
:100D8000D4D100962046402100223B46FFF744FF85
:100D9000034690B9202284F83920002284F83820B4
:100DA0000CE002230AE0012308E0012306E002230D
:100DB00004E0032302E0032300E00323184602B00B
:100DC000BDE8F081704700BF08B50168CB6823F02B
:100DD0004003CB60202380F83930FFF7F3FF002079
:100DE00008BD00BF704700BF08B590F83A30DBB2CD
:100DF000222B43D18368B3F5805F13D1826A0369E4
:100E000043B903685B68C3F308031380836A023342
:100E1000836218E003685B68DBB21380836A013386
:100E2000836210E0036933B9836A5A1C82620268E4
:100E300052681A7007E0826A531C836203685B6819
:100E400003F07F031370C38D013B9BB2C385BBB915
:100E50000268D36823F02003D3600268D36823F4C8
:100E60008073D3600268536923F001035361202328
:100E700080F83A30FFF7B6FF002008BD022008BD19
:100E8000002008BD704700BF10B504460268136813
:100E9000D168526913F00F0009D113F0200F06D06A
:100EA00011F0200F03D02046FFF79EFF10BD002851
:100EB00062D012F0010202D111F4907F5CD013F0E5
:100EC000010F06D011F4807F03D0E06B40F00100E9
:100ED000E06313F0040F04D01AB1E06B40F002009D
:100EE000E06313F0020F04D01AB1E06B40F004008D
:100EF000E06313F0080F04D01AB1E26B42F008026D
:100F0000E263E26B002A4AD013F0200F05D011F003
:100F1000200F02D02046FFF767FF23685B6903F0CC
:100F20004003E26B12F0080F00D1FBB12046FFF73F
:100F300053FD23685A6912F0400F13D05A6922F00A
:100F400040025A61636B4BB1154A5A63606B00F003
:100F5000B3FD20B3606B436B984710BD2046FFF78D
:100F600091FF10BD2046FFF78DFF10BD2046FFF713
:100F700089FF0023E36310BD13F0800F06D011F04A
:100F8000800F03D02046FFF735FD10BD13F0400F52
:100F900005D011F0400F02D02046FFF715FF10BD1D
:100FA000A50F000808B5406A0023C385C384FFF776
:100FB00069FF08BD08B5074A136843F010031360C2
:100FC000032000F0C5FD002001F0C0FFFFF7E6FAA6
:100FD000002008BD00200240034A13680349097835
:100FE0000B441360704700BF3C4800200000002005
:100FF000014B1868704700BF3C48002082B0084B86
:101000001B68084AA2FB03235B0A00FB03F0019064
:1010100000BF019B5A1E0192002BF9D102B070470C
:1010200004000020D34D621070B582B004460368FE
:1010300013F0010F6BD0A84B5B6803F00C03042B7B
:101040000AD0A54B5B6803F00C03082B0DD1A24B13
:101050005B6813F4803F08D09F4B1B6813F4003F7C
:1010600055D06368002B52D1B8E16368B3F5803F77
:1010700005D1994A136843F48033136026E063B9BD
:1010800003F1804303F504331A6822F480321A60B6
:101090001A6822F480221A6018E0B3F5A02F0CD150
:1010A00003F18043A3F53C331A6842F480221A60AE
:1010B0001A6842F480321A6008E0874B1A6822F4FA
:1010C00080321A601A6822F480221A6063687BB149
:1010D000FFF78EFF054605E0FFF78AFF401B6428F7
:1010E00000F27E817C4B1B6813F4003FF4D00EE0CD
:1010F000FFF77EFF054605E0FFF77AFF401B6428F7
:1011000000F27081744B1B6813F4003FF4D1236824
:1011100013F0020F50D0704B5B6813F00C0F0AD025
:101120006D4B5B6803F00C03082B16D16A4B5B68B0
:1011300013F4803F11D1684B1B6813F0020F03D0EA
:101140002369012B40F05081634A136823F0F803B0
:10115000616943EAC10313602EE02369D3B1012220
:101160005E4B1A60FFF744FF054605E0FFF740FFBE
:10117000401B022800F23A81574B1B6813F0020F04
:10118000F4D0554A136823F0F803616943EAC103B8
:10119000136011E00022514B1A60FFF729FF05464A
:1011A00005E0FFF725FF401B022800F221814A4B92
:1011B0001B6813F0020FF4D1236813F0080F29D035
:1011C000A369ABB10122464B1A60FFF711FF054638
:1011D00005E0FFF70DFF401B022800F20B813E4B9C
:1011E0005B6A13F0020FF4D00120FFF707FF11E054
:1011F00000223B4B1A60FFF7FBFE054605E0FFF7B8
:10120000F7FE401B022800F2F780334B5B6A13F0B5
:10121000020FF4D1236813F0040F00F089802E4BE5
:10122000DB6913F0805F0BD12B4BDA6942F08052FF
:10123000DA61DB6903F080530193019B012500E033
:101240000025284B1B6813F4807F13D1254A1368AF
:1012500043F480731360FFF7CBFE064605E0FFF70B
:10126000C7FE801B642800F2C9801E4B1B6813F464
:10127000807FF4D0E368012B05D1174A136A43F04D
:101280000103136222E063B903F1804303F50433E1
:101290001A6A22F001021A621A6A22F004021A6221
:1012A00014E0052B09D10C4B1A6A42F004021A62B1
:1012B0001A6A42F001021A6208E0074B1A6A22F029
:1012C00001021A621A6A22F004021A62E368CBB1C0
:1012D000FFF78EFE06460FE000100240000042427B
:1012E0008004424200700040FFF782FE801B41F202
:1012F0008833984200F28480494B1B6A13F0020F36
:10130000F2D00FE0FFF774FE064606E0FFF770FE2E
:10131000801B41F28833984274D8414B1B6A13F00A
:10132000020FF3D125B13E4AD36923F08053D36134
:10133000E369002B68D03A4A526802F00C02082A8E
:1013400064D0022B37D10022364B1A60FFF750FED3
:10135000054604E0FFF74CFE401B022858D8304BEE
:101360001B6813F0007FF5D1236AB3F5803F06D1E7
:101370002B494B6823F40032A36813434B60284881
:10138000436823F47411236A626A13430B43436076
:101390000122244B1A60FFF72BFE044604E0FFF7FE
:1013A00027FE001B022835D81D4B1B6813F0007F59
:1013B000F5D0002031E000221A4B1A60FFF718FE2A
:1013C000044604E0FFF714FE001B022824D8144B47
:1013D0001B6813F0007FF5D100201EE001201CE007
:1013E00003201AE0032018E0012016E0032014E097
:1013F000032012E0032010E003200EE003200CE0A5
:1014000003200AE0032008E0002006E0012004E0B9
:10141000032002E0032000E0032002B070BD00BF03
:10142000001002406000424230B486B0164D02AC5B
:1014300028686968AA68EB680FC42B8AADF8043085
:10144000124B5B6803F00C02082A19D1C3F38342E4
:1014500006A90A4412F8100C13F4803F0CD00B4B71
:101460005B68C3F340430B4413F8142C084B03FB95
:1014700000F0B0FBF2F004E0064B03FB00F000E0EC
:10148000034806B030BC7047D45A00080010024030
:1014900000127A0000093D0070B55C4B1B6803F038
:1014A00007038B420BD2594A136823F007030B43FF
:1014B0001360136803F007038B4240F097800368C2
:1014C00013F0020F06D0524C636823F0F0028368D9
:1014D000134363600D460446036813F0010F4DD0BB
:1014E0004268012A05D14A4B1B6813F4003F0DD115
:1014F0007EE0022A05D1464B1B6813F0007F05D120
:1015000078E0434B1B6813F0020F75D040494B68DD
:1015100023F0030313434B60FFF76AFD064663683D
:10152000012B0ED106E0FFF763FD801B41F28833EB
:10153000984263D8364B5B6803F00C03042BF2D15E
:101540001CE0022B15D106E0FFF752FD801B41F293
:101550008833984254D82E4B5B6803F00C03082B59
:10156000F2D10BE0FFF744FD801B41F28833984233
:1015700048D8274B5B6813F00C0FF3D1234B1B6843
:1015800003F00703AB420AD9204A136823F007038C
:101590002B431360136803F00703AB4234D1236875
:1015A00013F0040F06D01A494B6823F4E062E36895
:1015B00013434B60236813F0080F07D0144A536895
:1015C00023F46053216943EAC1035360FFF72CFF02
:1015D0000F4B5B68C3F303130E4AD35CD8400E4B2A
:1015E0001860002001F0B2FC002070BD012070BD29
:1015F000012070BD012070BD012070BD032070BDB1
:10160000032070BD032070BD012070BD002002408A
:1016100000100240185B000804000020014B18680D
:10162000704700BF0400002008B5FFF7F7FF044B28
:101630005B68C3F30223034AD35CD84008BD00BFF4
:1016400000100240285B000808B5FFF7E7FF044BD5
:101650005B68C3F3C223034AD35CD84008BD00BF14
:1016600000100240285B00080F2303600B4B5A68F0
:1016700002F0030242605A6802F0F00282605A6887
:1016800002F4E062C2605B6803F46053DB0803614C
:10169000034B1B6803F007030B6070470010024008
:1016A0000020024070B582B00446036813F0010FB9
:1016B0005CD03E4BDB6913F0805F0BD13B4BDA69AA
:1016C00042F08052DA61DB6903F080530193019BA1
:1016D000012600E00026364B1B6813F4807F12D1F0
:1016E000334A136843F480731360FFF781FC0546A7
:1016F00004E0FFF77DFC401B64284FD82C4B1B688F
:1017000013F4807FF5D0294B1B6A13F4407321D06A
:10171000626802F440729A421CD0244A136A23F48D
:101720004070244901250D6000250D60106213F002
:10173000010F0FD0FFF75CFC054606E0FFF758FCF1
:10174000401B41F2883398422AD8184B1B6A13F089
:10175000020FF3D015490B6A23F4407263681343F8
:101760000B621EB1CB6923F08053CB61236813F069
:10177000020F06D00D494B6823F44042A36813437F
:101780004B60236813F0100F0CD008494B6823F40A
:101790008002E36813434B60002004E0032002E072
:1017A000032000E0002002B070BD00BF0010024026
:1017B000007000404004424270B586B006463B4D82
:1017C00002AC28686968AA68EB680FC42B8AADF878
:1017D0000430022E4ED0102E02D0012E55D12DE015
:1017E000334B5A681B6813F0807F50D0C2F3834399
:1017F00006A90B4413F8103C12F480320ED02C4989
:101800004968C1F3404106A8014411F8140C4AB1DB
:10181000284AB2FBF0F003FB00F004E0264800FB8E
:1018200003F000E00020224B5B6813F4800F3AD1F4
:101830004000224BA3FB0030400834E01C4B1B6AE5
:1018400040F202321A40B2F5817F22D003F4407395
:10185000B3F5007F04D1164A526A12F0020F1BD171
:10186000B3F5407F1BD1124B1B6813F4003F18D116
:10187000002018E0FFF7E8FE0D4B5B68C3F38133EF
:1018800001335B00B0FBF3F00DE000200BE0002023
:1018900009E04FF4004006E049F6404003E0002034
:1018A00001E04FF2244006B070BD00BFE85A0008C6
:1018B0000010024000127A0000093D00ABAAAAAA5B
:1018C000F0B583B000273C46DAE00122A2400B6865
:1018D0001340934240F0D3804D68122D2DD00BD889
:1018E000022D27D003D85DB3012D1ED035E0032D86
:1018F00030D0112D1BD030E0644EB54220D008D836
:10190000A6F58016B5421BD006F58036B54224D127
:1019100016E05F4EB54213D006F58036B5420FD0C3
:10192000A6F58016B54218D10AE0CF6815E0CF6859
:10193000043712E0CF6808370FE0CF680C370CE0AF
:101940008D684DB1012D02D10261082705E0426189
:10195000082702E0002700E00427FF2B01D8844677
:1019600001E000F1040CFF2B02D84FEA840E03E0E3
:10197000A4F1080E4FEA8E0EDCF800600F2202FA86
:101980000EF226EA020507FA0EF22A43CCF80020EE
:101990004A6812F0805F72D03E4A956945F00105B1
:1019A0009561926902F001020192019A4FEA940E48
:1019B0000EF10205384A52F8256004F0030C4FEA94
:1019C0008C0C0F2202FA0CF226EA0205334A9042EE
:1019D00013D002F5806290420DD002F580629042F1
:1019E00007D002F58062904201D1032206E0042272
:1019F00004E0022202E0012200E0002202FA0CF2DE
:101A00002A430EF1020E244D45F82E204A6812F4A6
:101A1000803F05D005F580652A681A432A6004E0F6
:101A20001F4D2A6822EA03022A604A6812F4003F26
:101A300004D01B4D6A681A436A6004E0184D6A6856
:101A400022EA03026A604A6812F4801F04D0144D2F
:101A5000AA681A43AA6004E0114DAA6822EA0302A8
:101A6000AA604A6812F4001F04D00D4DEA681343BF
:101A7000EB6004E00A4DEA6822EA0303EB600134FC
:101A80000F2C7FF622AF03B0F0BD00BF0000211085
:101A90000000311000100240000001400008014029
:101AA000000401400AB101617047090401617047F7
:101AB000C3685940C160704708B590F82130022BC7
:101AC00003D004238363012008BD0268136823F058
:101AD0000E0313600268136823F0010313600368A8
:101AE000194A93421FD0143293421AD014329342AF
:101AF00014D0143293420ED01432934208D01432D0
:101B0000934202D14FF480120EE04FF080720BE04E
:101B10004FF4803208E04FF4805205E04FF48072B9
:101B200002E0102200E00122084B5A60012380F8F5
:101B30002130002380F82030436B13B198470020F8
:101B400008BD002008BD00BF0800024000000240A0
:101B500000F00700064AD36823F4E0631B041B0C63
:101B600043EA002040F0BF6040F40030D06070478E
:101B700000ED00E030B4164BDC68C4F30224C4F17D
:101B80000705042D28BF0425231D062B01D9033C7E
:101B900000E00024012303FA05F5013D2940A1409E
:101BA000A340013B1A400A43002806DA00F00F0068
:101BB0001201D2B2074B1A5407E01201D2B200F15F
:101BC000604000F5614080F8002330BC704700BFE2
:101BD00000ED00E014ED00E0410900F01F000123DA
:101BE0008340024A42F82130704700BF00E100E024
:101BF0000138B0F1807F0AD2064B5860F021064AC6
:101C000082F823100020986007221A607047012094
:101C1000704700BF10E000E000ED00E0042805D1AF
:101C2000054A136843F0040313607047024A1368BF
:101C300023F004031360704710E000E00F4B1A68B4
:101C400042F001021A6059680D4A0A405A601A6847
:101C500022F0847222F480321A601A6822F4802200
:101C60001A605A6822F4FE025A604FF41F029A600A
:101C70004FF00062034B9A60704700BF00100240B3
:101C80000000FFF800ED00E0134A12F0070F08D043
:101C9000D11D21F00701C1F58443043313440A46E2
:101CA00001E044F204230D48026000214160134426
:101CB000083B23F007030A48036059601960991A2A
:101CC00051601360074B1960074B19604FF00042D9
:101CD000064B1A60704700BF9C0000209400002053
:101CE00090000020A44200208C000020A042002090
:101CF000134A00E01A4613688342FBD310B45168BC
:101D00005418844203D14068014451601046416830
:101D100044189C420CD10B4C2468A34206D05B684B
:101D20001944416013681B68036002E0046000E02E
:101D30000360824200D010605DF8044B704700BF22
:101D4000940000209000002070B5044600F0C8FB0D
:101D5000334B1B680BB9FFF797FF324B1B681C42D4
:101D600047D134B1083414F0070F02D024F007042F
:101D70000834002C3FD02C4B1B689C423DD82B4B89
:101D80001D6801E02B4615466A68A24202D22A6805
:101D9000002AF7D1224A1268954230D01E680836D0
:101DA0002A681A606B681B1B102B10D9281910F0B9
:101DB000070F08D04FF0500383F31188BFF36F8FE4
:101DC000BFF34F8FFEE743606C60FFF791FF6A68D7
:101DD00015490B689B1A0B60154909688B4201D2A3
:101DE00013490B600F4B1B6813436B6000232B6080
:101DF00006E0002604E0002602E0002600E00026BF
:101E000000F008FC16F0070F08D04FF0500383F3E2
:101E10001188BFF36F8FBFF34F8FFEE7304670BD61
:101E200090000020A04200208C00002094000020A0
:101E3000A4420020A0B338B50346A0F1080550F82D
:101E4000042C1849096812EA010408D14FF0500324
:101E500083F31188BFF36F8FBFF34F8FFEE750F806
:101E6000080C40B14FF0500383F31188BFF36F8F1C
:101E7000BFF34F8FFEE794B188B91C4622EA0102F6
:101E800043F8042C00F02CFB54F8041C064A136899
:101E90000B4413602846FFF72BFF00F0BBFB38BD57
:101EA000704700BFA04200208C0000200B4B1B6835
:101EB000B3F1FF3F08D04FF0500383F31188BFF315
:101EC0006F8FBFF34F8FFEE74FF0500383F31188FE
:101ED000BFF36F8FBFF34F8FFEE700BF08000020F6
:101EE00006480068006880F3088862B661B6BFF3F0
:101EF0004F8FBFF36F8F00DF00BF000008ED00E0E1
:101F00004FF0807340F8043C21F0010140F8081CB8
:101F1000034B40F80C3C40F8202C4038704700BF81
:101F2000AD1E0008000000000000000000000000DE
:101F3000074B19680868B0E8F00F80F30988BFF311
:101F40006F8F4FF0000080F311884EF00D0E704738
:101F5000704300204FF0500383F31188BFF36F8F5D
:101F6000BFF34F8F0A4A136801331360012B0DD161
:101F7000084B1B6813F0FF0F08D04FF0500383F39A
:101F80001188BFF36F8FBFF34F8FFEE7704700BF1D
:101F90000800002004ED00E0094B1B6843B94FF036
:101FA000500383F31188BFF36F8FBFF34F8FFEE7AA
:101FB000013B034A13600BB983F31188704700BFDC
:101FC00008000020000000000000000000000000E9
:101FD000EFF30980BFF36F8F0D4B1A6820E9F00F04
:101FE00010602DE908404FF0500080F3118800F098
:101FF000F3FB4FF0000080F31188BDE8084019683A
:102000000868B0E8F00F80F30988BFF36F8F70475E
:102010007043002008B54FF0500383F31188BFF3DD
:102020006F8FBFF34F8F00F063FA18B14FF08052FB
:10203000024B1A60002383F3118808BD04ED00E011
:10204000064B1B68064AA2FB03239B09013B054A7A
:1020500013600722044B1A60704700BF0400002081
:10206000D34D621014E000E010E000E000B583B052
:102070001F4B1A78D2B20192FF221A701B78DBB282
:102080008DF803309DF8033003F05003194A1370A4
:102090000722194B1A6009E0174A1368013B1360C5
:1020A0009DF803305B00DBB28DF803309DF8033000
:1020B00013F0800FF0D1104A13681B0203F4E063A1
:1020C0001360019BDBB20A4A13700C4B1A6842F48E
:1020D00070021A601A6842F070421A60FFF7B0FF8F
:1020E0000022074B1A60FFF7FBFEFFF7DFFE00BF81
:1020F00000E400E0A8420020AC42002020ED00E017
:102100000800002000F1080343604FF0FF328260B6
:10211000C360036100230360704700BF00230361B5
:10212000704700BF43684B609A688A609A68516044
:1021300099600861036801330360704730B40D682B
:10214000B5F1FF3F01D1026907E000F1080200E0AC
:102150001A4653681C68AC42FAD953684B609960C0
:102160008A605160086103680133036030BC7047C6
:1021700003694268816891608268416851605A6869
:10218000824201D182685A600022026118680138D7
:10219000186070470A4B1B681B680BB9012300E0ED
:1021A000002323B14FF0FF32064B1A607047044BF7
:1021B0001B68DB68DB685A68024B1A60704700BF17
:1021C000B44200209043002010B50446006BFFF796
:1021D00031FE2046FFF72EFE10BD00BF2DE9F0476F
:1021E00081469846089D099F0A9C236B02F1804214
:1021F000013A03EB820626F00706002306E0C85CDE
:10220000E21882F83400CA5C12B101330F2BF6D900
:10221000002384F84330062D00D90625E562656465
:102220004FF0000AC4F848A0201DFFF777FF04F123
:102230001800FFF773FF2461C5F10705A56164620B
:10224000C4F84CA084F850A0304649464246FFF7F7
:1022500057FE206007B13C60BDE8F08738B5002428
:1022600007E004EB84039B000E481844FFF74AFF85
:102270000134062CF5D90C4D2846FFF743FF0B4CD3
:102280002046FFF73FFF0A48FFF73CFF0948FFF7EA
:1022900039FF0948FFF736FF084B1D60084B1C60EB
:1022A00038BD00BFD842002098430020AC43002036
:1022B00074430020BC420020C0430020B4420020F0
:1022C000D042002010B50446FFF744FE204A1368B0
:1022D000013313601F4B1B683BB91E4B1C60136816
:1022E000012B0DD1FFF7BAFF0AE01B4B1B683BB96E
:1022F000184B1B68DA6AE36A9A4201D8154B1C60D6
:10230000164A136801331360E06A012383401449BD
:102310000A6813430B6000EB80008000114B1844E7
:10232000211DFFF7FFFEFFF737FE0B4B1B686BB15C
:10233000084B1B68DA6AE36A9A4207D24FF0805270
:10234000094B1A60BFF34F8FBFF36F8F10BD00BFF3
:102350006C43002070430020B842002094430020CA
:10236000D4430020D842002004ED00E070B50446BC
:102370000E461C4B1D681C4B18680430FFF7F8FE16
:1023800048B9194B1B68DA6A0123934017490A6858
:1023900022EA03030B60B4F1FF3F07D136B1124BC1
:1023A000196813480431FFF7BDFE70BD2C440E4B75
:1023B0001B685C60AC4207D20E4B18680A4B196868
:1023C0000431FFF7BBFE70BD0B4B1868064B196854
:1023D0000431FFF7B3FE094B1B689C4201D2074B47
:1023E0001C6070BD8C43002070430020D44300204B
:1023F000C0430020D0420020B4420020904300207F
:102400002DE9F04385B080460F4615461E469000E4
:10241000FFF79AFC60B181465420FFF795FC044613
:1024200010B1C0F8309004E04846FFF703FD00E02B
:1024300000248CB10C9B00930D9B0193029400230C
:102440000393404639462A463346FFF7C7FE2046E7
:10245000FFF738FF012001E04FF0FF3005B0BDE885
:10246000F08300BF00B583B000230093164A0192A9
:10247000164817498022FFF7C3FF012814D14FF0F7
:10248000500383F31188BFF36F8FBFF34F8F4FF06B
:10249000FF32104B1A6001220F4B1A6000220F4BC3
:1024A0001A60FFF7E3FD0BE0B0F1FF3F08D14FF0FA
:1024B000500383F31188BFF36F8FBFF34F8FFEE795
:1024C00003B05DF804FB00BF88430020B12700087B
:1024D000305B000890430020B84200208C4300206D
:1024E000024A136801331360704700BF6443002041
:1024F000F8B53D4B1B68002B69D13C4B1D6801357D
:102500001D60C5B93A4B1B681B6843B14FF05003BF
:1025100083F31188BFF36F8FBFF34F8FFEE7344A09
:102520001168344B186810601960334A136801331E
:102530001360FFF72FFE314B1B689D4203D200242E
:102540003AE0012400E00024294B1B681B680BB90A
:10255000012300E0002323B14FF0FF32274B1A6024
:102560002AE0234B1B68DB68DE6873689D4202D259
:10257000224A136020E0371D3846FFF7F9FDB36AA1
:102580001BB106F11800FFF7F3FDF36A012202FA0E
:1025900003F11B4802680A43026003EB83039B00BC
:1025A000184818443946FFF7BDFDF26A164B1B6800
:1025B000DB6A9A42C5D2C7E7134B1B68DB6A03EBA1
:1025C00083039B000F4AD358012B06D806E00F4A1D
:1025D000136801331360002400E001240C4B1B68D6
:1025E00003B101242046F8BD644300208C43002041
:1025F000B4420020D0420020B0420020904300208E
:10260000D4430020D842002070430020D442002050
:10261000D843002038B5344B1B6843B94FF0500302
:1026200083F31188BFF36F8FBFF34F8FFEE7FFF780
:1026300091FC2D4B1A68013A1A601B68002B4CD193
:102640002A4B1B6833BB00244AE0294BDB68DC685B
:1026500004F11800FFF78CFD251D2846FFF788FDC3
:10266000E36A012202FA03F1224802680A43026087
:1026700003EB83039B00204818442946FFF752FDD3
:10268000E26A1E4B1B68DB6A9A4204D301221C4B90
:102690001A6000E00024164B1B68002BD5D10CB14A
:1026A000FFF778FD174B1C6854B1FFF721FF10B1FD
:1026B0000122134B1A60013CF7D10022114B1A6022
:1026C0000F4B1B685BB14FF080520F4B1A60BFF38A
:1026D0004F8FBFF36F8F012402E0002400E000243D
:1026E000FFF75AFC204638BD644300206C430020AD
:1026F00074430020D4430020D842002070430020BF
:10270000D8430020D442002004ED00E010B5A8B169
:102710000446104B1B6843B14FF0500383F31188FC
:10272000BFF36F8FBFF34F8FFEE7FFF7D9FE204651
:102730000021FFF71BFEFFF76DFF00E0002038B916
:102740004FF08052044B1A60BFF34F8FBFF36F8F6F
:1027500010BD00BF6443002004ED00E010B51BE095
:10276000FFF7BEFE0F4B1C68FFF754FFA4B1FFF745
:10277000F1FB0C4BDB68DC68201DFFF7F9FC0A4A13
:102780001368013B1360094A1368013B1360FFF7AC
:1027900003FC2046FFF718FD044B1B68002BDFD11C
:1027A00010BD00BFBC4200206C43002068430020E5
:1027B00008B5FFF7D3FF064B1B68012BF9D94FF083
:1027C0008052044B1A60BFF34F8FBFF36F8FF0E757
:1027D000D842002004ED00E0204B1B681BB1012211
:1027E0001F4B1A60704700221D4B1A601D4B1B685F
:1027F000B3FA83F3DBB2C3F11F0303EB830292004E
:1028000019498A5842B94FF0500383F31188BFF336
:102810006F8FBFF34F8FFEE710B4134C9A00D1189F
:10282000890021444868406848601A449200083290
:102830002244904205D1416803EB83029200224476
:10284000516003EB83039B00074A13445B68DA681B
:10285000064B1A605DF8044B704700BF64430020CC
:10286000D8430020D4430020D842002070430020E9
:10287000054B1B6823B1054B1B681BB90220704731
:102880000120704700207047B842002064430020B8
:10289000842801D0033070470020704708B5FFF747
:1028A000E1FD002008BD00BFF0B585B00C464768CB
:1028B00006680569B0F90800FFF7EAFF009003AB6E
:1028C000019338463146AAB22346FFF799FD012805
:1028D00001D1039800E0002005B0F0BD08B508B9AB
:1028E0000120FFE7FFF712FF002008BD08B5FFF742
:1028F000BFFF012801D0FFF78DFB08BD00000000DD
:10290000012B01D000207047012A01D00020704720
:1029100003A3D3E90023C1E900230120704700BFCE
:102920009E6AC421818A46EEF0B585B0FEF77CFE32
:1029300000230293ADF80C30424CA4FB0034A40CED
:102940000923591CB4FBF1F201FB124222B1022B04
:1029500073D9013BDBB2F4E7B4FBF1F14A1EB2F5E7
:10296000806F6CD2C3EBC306F21C22D4D210D5B256
:102970005F1BFFB2AB421ED9D2B24FF47A7402FB96
:1029800004443A440132B4FBF2F292B2B2F5617FF0
:1029900005D9751E16D4C5F3C7055B1BDFB26B1EC8
:1029A000DBB20F2B10D8002F3CD0082F3CD90022CF
:1029B0000BE00732DAE7244B244A40F21511244891
:1029C00002F092F80735E6E70022EB1903FB01134A
:1029D000B0FBF3F01F4B984228D13AB3ADF8081082
:1029E00001238DF80C308DF80A508DF80B70002300
:1029F00003B101BE002102A801F092FE00B101BEA8
:102A0000154C00230193154B0093154B4FF4806236
:102A10001449204601F07EFA0121204601F0A2FA75
:102A200005B0F0BD0022D0E70122CEE70E4B074AE9
:102A300040F22F11064802F057F80C4BD8E70B4B29
:102A4000D6E700BF83DE1B43745B0008385B0008D9
:102A5000885B000840420F00DC4300200129000889
:102A60005D2C000800440020B05B000818FCFFFF4C
:102A700008B50A4801F047FB04E001BE07E007483B
:102A800001F041FB48B101F02FFF0028F5DB0028E1
:102A9000F5DD024801F03DFBF1E708BDDC43002015
:102AA00000B585B0684601F0A9FF10B905B05DF822
:102AB00004FBFEF79DFA4FF47A7202FB00F200234A
:102AC0006946024801F0B4FBF0E700BFDC43002098
:102AD00030B583B0044600258DF807508DF80650B8
:102AE0000560C0F80350FEF783FA0E4BA3FB0030DD
:102AF000800902AB43F8080D20222946204601F048
:102B000011FB0DF1070302222021204601F00AFBF0
:102B10000DF1060303222221204601F003FB03B03E
:102B200030BD00BFD34D621010B588B0FEF760FA1B
:102B3000154B1B686433984201D208B010BDFEF7F4
:102B400057FA114B18604FF480511048FEF7B0FF50
:102B500006AC2046FFF7BCFF072304930394182319
:102B600002930B4B019340F25513009304A3D3E956
:102B70000023084801F016FADFE700BFAFF300803A
:102B8000F1C6A7C1D068080F04480020000C01401E
:102B900008480020DC430020002302E0C354013336
:102BA000DBB20F2BFAD9704770B582B0054640F200
:102BB0007912002101F0F7FF2846FFF789FF632310
:102BC000EB712B7201236B7202AB0F4A43F8042D99
:102BD00020225021284601F0A5FA05F11800FFF740
:102BE000DBFF0A4C0FCCC5F82900C5F82D10C5F83D
:102BF0003120C5F835302288A378A5F8392085F82A
:102C00003B303C2002B070BDFE0FDCBA585B0008C0
:102C100030B5E7B0044607AD40F2791200212846EE
:102C200001F0C1FF2846FFF7BFFFE17E0590049544
:102C300000230393A37E029319340194012300938C
:102C400004A3D3E90023024801F00FFA67B030BDB6
:102C5000DC4300209E6AC421818A46EE08B50B7EC3
:102C6000012B00D008BDCB8A012BFBD10846FFF712
:102C7000CFFFF7E70000000030B59BB00CAC372564
:102C80002A460021204601F08EFF7F238DF82F3049
:102C9000354801F0A3FCADF82C0044F66633ADF8DE
:102CA0002A30ADF8283000218DF82710ADF8241017
:102CB000089101238DF81F300BAB1022204601F044
:102CC00031FA0DF12A0310221146204601F02AFAAA
:102CD0000AAB10222021204601F024FA0DF11F0337
:102CE0000B227021204601F01DFA0DF12F0307225F
:102CF0007B21204601F016FA0DF12F0307228221D5
:102D0000204601F00FFA0DF12F03072289212046FA
:102D100001F008FA0DF1270308229021204601F066
:102D200001FA08AB20229821204601F0FBF90F4B55
:102D30002822B821204601F0F5F9049503941823C0
:102D4000029309AB019340F24443009304A3D3E9F7
:102D50000023074801F026F91BB030BDAFF3008017
:102D60006619718A54269C249A9979416C5B0008F3
:102D7000DC43002008B5FEF73BF9064B1B68C8335F
:102D8000984200D208BDFEF733F9024B1860FFF7F6
:102D900073FFF7E70048002010B588B0184B9A6918
:102DA00042F020029A619A6902F020020192019A8F
:102DB0009A6942F004029A619A6902F0040202924E
:102DC000029A9A6942F008029A619B6903F008032B
:102DD0000393039B0B4C01224FF4E0412046FEF786
:102DE00061FE4FF4E043049301230593002306930F
:102DF0000223079304A92046FEF762FD08B010BD28
:102E000000100240000C014008B50C480C4B036058
:102E10001023436000238360C360036143618361C7
:102E2000C361036243628362C362FDF707FC00B9BA
:102E300008BD4F210348FDF7E5FAF9E740480020B7
:102E400000640040B45B00080268144B9A4200D052
:102E5000704710B586B003F5D633DA6942F00072D8
:102E6000DA61DB6903F000730193019B4FF40063A7
:102E70000293002303930493094C02A92046FEF712
:102E80001FFD4FF480530293022303930323059302
:102E900002A92046FEF714FD06B010BD00640040F4
:102EA0000008014008B50B480B4B03604FF4E133B9
:102EB000436000238360C36003610C22426183612D
:102EC000C361FDF7DDFE00B908BD5C210348FDF7D5
:102ED00099FAF9E78448002000380140C05B0008F7
:102EE0000268184B9A4200D0704730B587B003F59E
:102EF00058439A6942F480429A619B6903F4804383
:102F00000193019B4FF40073029302230393032365
:102F100005930D4D02A92846FEF7D2FC4FF48063BD
:102F2000029300240394049402A92846FEF7C8FCE7
:102F3000224605212520FEF71DFE2520FEF74CFE2A
:102F400007B030BD003801400008014000B589B02D
:102F5000002201461E20FEF70DFE1E20FEF73CFE5D
:102F6000154BDA6942F00402DA61DB6903F004030D
:102F70000193019B02A903A8FEF776FBFEF754FB21
:102F800043000E48A0FB03239B0C013B0C480D4A59
:102F9000026040F2E732C260436000230361836055
:102FA000FDF7FAFC18B1012009B05DF804FB0448F4
:102FB000FDF7ECFBF8E700BF0010024083DE1B4387
:102FC000C44800200008004008B50D480D4B0360C0
:102FD0004FF4807383600023C360012242618261E9
:102FE0004FF46022C26143601023036100F0ACFB28
:102FF00000B908BD4C210448FDF704FAF9E700BF09
:103000000449002000240140CC5B000802680E4BFC
:103010009A4200D0704700B587B003F56C439A69B7
:1030200042F400729A619B6903F400730193019B5F
:103030000E2302930323039302A90448FEF740FCE6
:1030400007B05DF804FB00BF002401400008014008
:1030500038B50F281CD8DFE810F01000320042000D
:1030600053006400750085009600A800BA00CC00EB
:10307000DE00F000030116012901964900230B60D0
:1030800001234B6005238B60934800F0E5F988B974
:10309000914C204600F0BCFA4FF6FF71204600F03C
:1030A0001FF9204600F0D4F90546204600F0D4FB75
:1030B000A8B238BD90218948FDF7A4F9E8E7854911
:1030C00001230B604B6005238B60834800F0C4F93B
:1030D0000028DDD09A218148FDF794F9D8E77D4991
:1030E00002230B6001234B6005238B607A4800F0BC
:1030F000B3F90028CCD0A4217848FDF783F9C7E7BD
:10310000744903230B6001234B6005238B607248D5
:1031100000F0A2F90028BBD0AE217048FDF772F98B
:10312000B6E76C4904230B6001234B6005238B60D9
:10313000694800F091F90028AAD0B8216748FDF746
:1031400061F9A5E7634905230B6001224A608B60A2
:10315000614800F081F900289AD0C2215F48FDF74C
:1031600051F995E75B4906230B6001234B6005236A
:103170008B60594800F070F9002889D0CC2157485D
:10318000FDF740F984E7534907230B6001234B60A7
:1031900005238B60504800F05FF900283FF478AFBA
:1031A000D6214E48FDF72EF972E74A4908230B60F5
:1031B00001234B6005238B60474800F04DF9002840
:1031C0003FF466AFE0214548FDF71CF960E741494F
:1031D00009230B6001234B6005238B603E4800F000
:1031E0003BF900283FF454AFEA213C48FDF70AF9C7
:1031F0004EE738490A230B6001234B6005238B609F
:10320000354800F029F900283FF442AFF421334853
:10321000FDF7F8F83CE72F490B230B6001234B60C7
:1032200005238B602C4800F017F900283FF430AFDD
:10323000FE212A48FDF7E6F82AE726490C230B6011
:1032400001234B6005238B60234800F005F900281B
:103250003FF41EAF4FF484712048FDF7D3F817E711
:103260001C490D230B6001234B6005238B601A481A
:1032700000F0F2F800283FF40BAF4FF489711748C3
:10328000FDF7C0F804E713490E230B6001234B60E0
:1032900005238B60104800F0DFF800283FF4F8AEFB
:1032A0004FF48E710D48FDF7ADF8F1E609490F2393
:1032B0000B6001234B6005238B60074800F0CCF8BE
:1032C00000283FF4E5AE4FF493710448FDF79AF8F7
:1032D000DEE600BF3449002004490020CC5B000832
:1032E000F0B583B005460C4600230193FDF780FE40
:1032F0002B689A6812F4807F23D106465A6812F42C
:10330000807F03D1DB6A13F4700F24D04B4B1F680E
:103310000220FEF751FAB7FBF0F02B681969484A12
:1033200011422FD1D96802F15C4211422AD11969A8
:10333000444A114239D1DA68434B1A4237D029271F
:103340003AE0AB6A43F02003AB62002385F82430F7
:10335000012003B0F0BD2B681B6813F0020F48D1A9
:10336000B4F1FF3FF7D024B1FDF742FE801BA0422D
:10337000F1D9AB6A43F00403AB62002385F8243033
:103380000320E6E719692F4A114204D1D96802F1F6
:103390006E4211420DD019692C4A0A405AB9DA68B6
:1033A0002A4B13405BB1FC2706E0292704E01427D1
:1033B00002E0542700E0FC2707FB00F704E0542755
:1033C000FAE7019B01330193019BBB4211D2B4F197
:1033D000FF3FF6D024B1FDF70BFE801BA042F0D9D1
:1033E000AB6A43F00403AB62002385F8243003206A
:1033F000AFE72B686FF012021A60AB6A43F40073F8
:10340000AB622B689B6803F46023B3F5602F01D097
:1034100000209EE7EB686BB9AB6A23F48073AB6264
:10342000AB6A13F4805F07D1AB6A43F00103AB6270
:1034300000208EE700208CE700208AE704000020AF
:10344000244992249224491292244900499224004A
:103450000368D86C7047000030B482B00023019339
:1034600090F82430012B00F08B800246012380F875
:1034700024304B68062B29D80568686B03EB83035F
:10348000053B1F249C4020EA04000C6804FA03F367
:1034900003436B630B68092B38D91568E86803EBA5
:1034A00043031E3B07249C4020EA04008C6804FA76
:1034B00003F30343EB600B68103B012B34D900206E
:1034C000002382F8243002B030BC70470C2B0ED899
:1034D0000568286B03EB8303233B1F249C4020EAF1
:1034E00004000C6804FA03F303432B63D2E7056876
:1034F000E86A03EB8303413B1F249C4020EA04005D
:103500000C6804FA03F30343EB62C3E71568286908
:1035100003EB430307249C4020EA04008C6804FA70
:1035200003F303432B61C6E713681648834205D0B3
:10353000936A43F0200393620120C1E7986810F476
:10354000000F1BD1986840F4000098600B68102BA6
:1035500001D00020B4E70C4B1B680C49A1FB0313FE
:103560009B0C03EB83035900019102E0019B013B9B
:103570000193019B002BF9D10020A1E700209FE7D8
:103580000220A0E7002401400400002083DE1B434A
:1035900030B583B00023019303689A6812F0010FDD
:1035A0002ED19A6842F001029A60174B1B68174AA5
:1035B000A2FB03239B0C019302E0019B013B0193BF
:1035C000019B002BF9D10446FDF712FD0546236847
:1035D0009B6813F0010F11D1FDF70AFD401B022873
:1035E000F5D9A36A43F01003A362E36A43F0010331
:1035F000E362002384F82430012002E0002000E090
:10360000002003B030BD00BF0400002083DE1B4358
:1036100090F82430012B6AD010B50446012380F8BD
:103620002430FFF7B5FF024600285BD1A36A23F4DC
:10363000407323F0010343F48073A36223682D4990
:103640008B4227D0A16A21F48011A162596811F43C
:10365000806F05D0A16A21F4405141F48051A162EC
:10366000A16A11F4805F2BD0E16A21F00601E162CA
:10367000002184F824106FF0020119602368996812
:1036800001F46021B1F5602F1DD0996841F48011DB
:1036900099602AE0A1F58061496811F4702FD1D0BA
:1036A000A16A41F48011A1621349496811F4806F45
:1036B000D6D0A16A21F4405141F48051A162CFE7F4
:1036C0000021E162D4E70B498B4204D0996841F4B0
:1036D000A001996009E0A1F58061496811F4702F9B
:1036E000D3D1F3E7002384F82430104610BD022222
:1036F00010467047002801400024014038B5036897
:103700009A6812F0010F01D1002038BD04469A6872
:1037100022F001029A60FDF76BFC054623689B6866
:1037200013F0010F0ED0FDF763FC401B0228F5D902
:10373000A36A43F01003A362E36A43F00103E36268
:103740000120E2E70020E0E700287FD038B50446FA
:10375000836A002B33D02046FFF7D0FFA36A13F013
:1037600010036DD100286BD1A26A22F4885222F096
:10377000020242F00202A2626268E1690A43E5685D
:1037800042EA4502A168B1F5807F21D001291CD011
:10379000616901291FD02568696821F469410B43DB
:1037A0006B6021688D682A4B2B4013438B60A368A4
:1037B000B3F5807F20D0012B1ED000211FE0C36213
:1037C00080F82430FFF722FCC5E74FF48073DFE771
:1037D0004FF48073DCE735B9A169013943EA41331D
:1037E00043F40063D7E7A16A41F02001A162E16AD6
:1037F00041F00101E162CEE72369013B190525682B
:10380000EB6A23F470030B43EB6223689968114B56
:103810000B409A420BD0A36A23F0120343F010032B
:10382000A362E36A43F00103E36201200DE0002399
:10383000E362A36A23F0030343F00103A36204E0FD
:10384000A36A43F01003A362012038BD0120704732
:10385000FDF7E1FFFE0E1FFF90F82430012B15D07D
:1038600010B50446012380F82430FFF747FF0246D5
:1038700038B9A36A23F4885323F0010343F001030A
:10388000A362002384F82430104610BD02221046A3
:103890007047091A89B208B2002800DB704720314E
:1038A00008B2FBE710B421F0604420F06042C30F7F
:1038B000B3EBD17F10D000290ADB00280ADB944249
:1038C00003D094422CBF00230123184610BC70473C
:1038D000A40CF2E7920CF2E7C1F38071C0F380739D
:1038E000944204D094422CBF00230123EDE7994277
:1038F000EBD1F7E710F0800F06D010F4004F01D1A4
:1039000000207047012070470220704710B5044620
:10391000FFF7F0FF022802D0C4F3074010BDC4F344
:103920000F2014F07F0FF9D100F00300F6E720B16B
:1039300003698B4201D00068F9E7704700207047A7
:1039400080EA0120002307E0400080B280F481502B
:1039500080F001000133DBB2072B05D810F4004FD3
:10396000F2D1400080B2F5E7704770B516461D46AB
:10397000002410E0C4F12002A4F1200326FA04F18F
:1039800005FA02F2114325FA03F31943C9B2FFF70E
:10399000D7FF0834A4B23F2CECD970BD38B505E090
:1039A0004D1C0978FFF7CCFF22462946541E002AF9
:1039B000F6D138BD30B40546002304E001EB4314D2
:1039C0002C60254601339A42F8D800232B60828070
:1039D000C380038130BC70470246006850B1036861
:1039E0001360D38801339BB2D38011898B4202D9F3
:1039F000138170470020704708B5FFF7EDFF0346BD
:103A000008B100220260184608BD2DE9F84FCC8AA3
:103A1000C4F30904062C1CD0264625460024052D97
:103A200002D89FB2A7420AD89DB2A54212D8354407
:103A3000CB8A65F30903CB820120BDE8F88F12F829
:103A400004C04F1987F81AC00135ADB20134A4B2D1
:103A5000E5E70024994693460E468246CD8AC5F393
:103A60000905AA1F1C23B2FBF3F803FB18281FFA51
:103A700088F84F687FBBFFF7BFFF074670600028DC
:103A800046D04FF000081FFA89F1A1423CD8F28AD3
:103A9000C2F309030B4463F30902F2820120CCE76D
:103AA000013292B21F463B68002BF9D109EB0503A6
:103AB000063B1C25B3FBF5F39BB201339BB29A4244
:103AC000E1D2B8F1000FDED15046FFF795FF386024
:103AD00008B30746D7E70122E5E71BF80400BB1847
:103AE0001871013292B20134A4B21B2A01D8A1424A
:103AF000F3D8A1420AD95046FFF77EFF386068B17B
:103B00004FF000080746BEE74246EEE73846F9E7C1
:103B10006FF0020091E76FF002008EE76FF0020095
:103B20008BE700002DE9F04190B10D4680460B7CFB
:103B3000ABB1C769D7B13E463C46CCB16968606855
:103B4000FFF7B0FEB0B923682646E3B11C46F4E7A0
:103B50000E4B0F4A4FF46F710E4800F0C5FF0E4B2D
:103B60000B4A40F2BD310B4800F0BEFFC8F81C10F4
:103B7000BDE8F081A74202D035602C60F8E72C60E8
:103B8000C8F81C50F4E72560F2E700BF4C5D000860
:103B9000485C0008045E0008185E000808B540B1E3
:103BA00003780133DBB203701F2B01D900230370AC
:103BB00008BD034B034A40F25531034800F094FF1F
:103BC000C45D0008245C0008045E000808B50368B2
:103BD0000B600160C38813B1013BC38008BD034B78
:103BE000034A40F22F61034800F07EFF945D000815
:103BF0008C5C0008045E000870B506460C4605E0C3
:103C00000D6806F10C00FFF7E1FF656061680029AF
:103C1000F6D1E38A6FF30903E3820020002170BD2F
:103C200008B5436883B9C37DC3F38402013262F3EC
:103C30008603C375C38A6FF30903C382C3F30723E3
:103C40006FF3C713C37508BD034B044A40F2264106
:103C5000034800F049FF00BFE05D0008545C000825
:103C6000045E00082DE9F843089F4AB14FEAD10CE1
:103C700003EBD70301F0070107F007070A4431E01F
:103C80001A4B1B4A4FF4A6611A4800F02DFF01F0B1
:103C9000070807F0070E4646F04538BF7646C6F1DE
:103CA0000806541AA64228BF26464FF47F45F54021
:103CB000EDB245FA0EF5CC0800EB0C0919F80440FA
:103CC00004FA08F424FA0EF4E4B24FEAD70813F821
:103CD00008E08EEA04042C408EEA040E03F808E0A3
:103CE000314437449142D2D1BDE8F883605D000889
:103CF0006C5C0008045E000810B518B1024601397A
:103D000000230CE0074B084A40F2C551074800F079
:103D1000EBFED05C545CD4545054013301398B42D7
:103D2000F7D310BD345E00087C5C0008045E000818
:103D300008B5FFF751FE034628B100220260426039
:103D40008260C2600261184608BD00002DE9F04F94
:103D500083B001930C9EBDF83450009090B18A4618
:103D6000934611F0604F14D1002A7BD00DB1002E84
:103D70007BD0072D14D94FF080094FF0000844463E
:103D800047465BE03D4B3E4A40F265313D4800F01E
:103D9000ABFE3D4B3A4A40F266313A4800F0A4FE91
:103DA000009F07F10C00FFF7C3FF044600285FD017
:103DB0002A463146083000F0EBFE6B1C23749BF85A
:103DC000003003F01F0343F0C00325442B724AF078
:103DD0000043636021463846FFF7A4FE01273846BA
:103DE00003B0BDE8F08F002306E0305DCA18107202
:103DF0000133DBB20134A4B2062B01D8AC42F4D3B8
:103E0000AC422CD04FEA4812D2B242EA09099BF8E0
:103E1000002002F01F0249EA0209CA1882F808903D
:103E20004AF000424A6001330B740098FFF77AFEB3
:103E300001373FB288F001084FF00009AC42CED004
:103E4000009B03F10C00FFF773FF014698B1002CB3
:103E5000C9D1019A0A72130A43720223CCE74FF0C8
:103E60004009CFE76FF00107B9E76FF00107B6E748
:103E70006FF00207B3E76FF00207B0E74C5D000890
:103E8000385C0008045E0008705D000830B589B039
:103E900004460D4620220021684600F084FE049569
:103EA0002046FFF799FD054650B16C460FCC2860BF
:103EB0006960AA60EB600FCC28616961AA61EB615F
:103EC000284609B030BD10B504460C30FFF7DEFFC0
:103ED000034610B1A2690260A061184610BD38B552
:103EE00004460D46806928B1FFF721FD034650B115
:103EF000184638BD04F10C00FFF7C8FF0346002840
:103F0000F6D0A061F4E729462046FFF7DCFF034620
:103F1000EEE7000010B5C8B1044600202060E06064
:103F2000206160612070A360029B6360A061E0611A
:103F3000039B23625209B2F5803F01D34FF6FF7213
:103F400092B204F10C00FFF735FD10BD024B034A9D
:103F50004F21034800F0C8FD485D0008D85B000809
:103F6000045E000808B538B102785AB951B111F0B1
:103F7000800F07D1017008BD054B064A7321064822
:103F800000F0B2FD054B034A7D21034800F0ACFD73
:103F90004C5D0008E45B0008045E0008B05B0008AC
:103FA000007870472DE9F04A85B0BDF830409DF8A3
:103FB00038B00F9EBDF840709EB3BBF11F0F4BD8B9
:103FC000CDE902230546FFF7EBFF814670BB072FC3
:103FD00045D834F0030345D13A4631464FF6FF70D9
:103FE000FFF7DCFC20F001004004400C400240EAF6
:103FF0000B6B240204F440744BEA040444EA0909FC
:104000004FF6FF73019700960D9A49462846FFF731
:104010009DFE04460D98FFF7C1FD204605B0BDE8A2
:10402000F08A002FC9D06FF00104F6E7240244EAB9
:104030000B6444EA0009072F0BD9DDE902234FF690
:10404000FF70FFF792FC3A463146FFF7A7FC0346A4
:10405000D8E74FF6FF73D5E76FF00104DDE76FF0A7
:104060000304DAE76FF00104D7E72DE9F04F83B0DE
:104070009DF838409DF83CA0109EBDF8447086B372
:104080001F2C3AD8904699468B460546FFF788FF85
:10409000B0B39DF830301B0443EA046444EACA34E8
:1040A00044EA0B24044344F08004072F1ED94246FF
:1040B0004B464FF6FF70FFF758FC3A463146FFF784
:1040C0006DFC0346019700960D9A21462846FFF79E
:1040D0003DFE0446BAF1010F0BD0204603B0BDE807
:1040E000F08F002FCCD06FF00104F6E74FF6FF738E
:1040F000E8E70D98FFF752FDEFE76FF00104ECE7FA
:104100006FF00304E9E7C06908B10430704700208C
:10411000704708B5C1690B68C3610C30FFF756FDE5
:1041200008BD0000F0B585B090B10E4614460546B6
:10413000ABB1402A1AD802B3002202920392012C9A
:1041400022D0082C3ED81B788DF8083001271FE0BC
:10415000284B294A4FF42A71284800F0C5FC284B07
:10416000254A40F2A921254800F0BEFC254B224AF1
:1041700040F2AD21214800F0B7FC224B1E4A40F22C
:10418000B3211E4800F0B0FC1B788DF8083027469C
:10419000FFF7D4FB48BB14F0070F0AD004AB03EBC6
:1041A000D40111F8083C624202F00702934001F882
:1041B000083C00962B462246002102A8FFF752FD3C
:1041C00005B0F0BD102C04D81B88ADF808300227CC
:1041D000DEE7202C03D81B6802930427D8E7D3E935
:1041E0000023CDE902230827D2E7394602A8FFF7CA
:1041F00083FDD0E7985C0008105C0008045E0008AE
:10420000B45C0008B05B000870B506460C4605E0DB
:104210000D6806F10C00FFF7D9FCE560E1680029A4
:10422000F6D10023E360A3602361A38270BD000088
:104230002DE9F04F93B007460D46CDE902230C68F7
:104240002046FFF757FB0646022806D0C4F306288F
:10425000002C05DB13B0BDE8F08F4FF00008F7E746
:1042600014F0C04FF6D195F80C90B9F1000FF1D0D1
:10427000022E04D03846FFF793FE4045EAD1C4F33E
:104280000463049304F07F0A2046FFF73FFB059088
:1042900040EA064343EA8A4343EA486809F1FF39A2
:1042A000A94499F804905FEAD91B45D012A90022CD
:1042B000002361E908237C68CDF800A0334602465C
:1042C0003846A0470028C5D041463846FFF707FECC
:1042D00004460028BED0DDE90A234FF6FF70FFF741
:1042E00044FBA082002C2FD0D4E90223DDE9020197
:1042F000CDE90623801A61EB0301CDE90801E07DD9
:1043000009F01F084146C0F38400FFF7C2FA844653
:10431000DDE90623134320D0AA4A0023DDE9080182
:104320008B4208BF824248D3BBF1000F47D0BCF19B
:10433000010F10DD012311E04146B869FFF7F7FADC
:1043400004460028CED185E79F4BA04A4FF49D71CB
:104350009F4800F0C9FB002300E00123002B30D16F
:10436000BBF1000F42D019F0400F3FD0DDE902123F
:10437000C4E9021200230D930E931193CDE90A12A2
:104380002B1D0C932B7B013BDBB2ADF83C30BDF811
:104390001430ADF83E308DF840608DF841809DF8C6
:1043A00010308DF842308DF843A0BB680AA938461A
:1043B00098472046FFF734FC4CE70123CEE7002363
:1043C000CCE7E37D69F386036FF3C713E3752146FA
:1043D0003846FFF711FCBBF1000FC1D1E37DC3F3F9
:1043E0008402013262F38603E37533E7C9F34013B5
:1043F000E27DB3EBD21F7FF42DAFC2F38403984567
:104400007FF428AFBBF1000F33D019F0400F30D14B
:104410002B7B032B7FF61EAFDDE90223C4E90223C9
:10442000AE1D2B7B033BDBB23246214607F10C006D
:10443000FFF7EBFA002814DB2B796A7943EA0223B1
:1044400023832A7B033AD2B23146A08AFFF7A6FA29
:10445000A082E37DDA43C2F3C01262F3C713E375AF
:10446000F8E621463846FFF7C7FB2046FFF7D8FBA2
:10447000F0E6BBF1000F02D119F0400F09D0297B03
:104480000139C9B2E28AC2F30902052A65D80023BC
:1044900025E02E1D2B7B013BDBB23246214607F186
:1044A0000C00FFF7B2FA002808DB2A7B013AD2B2EF
:1044B0003146A08AFFF772FAA082CAE72146384641
:1044C000FFF79AFB2046FFF7ABFBC3E6E81890F82E
:1044D00004C0A01880F81AC001320133DBB2052AEB
:1044E00001D88B42F2D3DDE902BCCDE90ABC04F16C
:1044F0001A020C9262680D928B4260D22B440433F4
:104500000E93E38AC3F309031944ADF83C10BDF8D8
:104510001430ADF83E308DF840608DF841809DF844
:1045200010308DF842308DF843A0002363602A7B61
:10453000013A291DA08AFFF731FAA082238B984205
:1045400003D1BB680AA9384698470AA93846FFF73D
:104550005BFE2046FFF764FB7CE6606810B14FF01D
:10456000060C04E00023BEE70CF11C0C184603689F
:10457000002BF9D128B1A2EB0C021B2A08D800238A
:1045800018E0144B114A4FF4D871114800F0ACFAFE
:10459000114B0E4A40F2B3110D4800F0A5FA05EB9D
:1045A000030C9CF804E000EB020C8CF804E00132F0
:1045B0000133DBB21B2A96D88B42F0D393E700235A
:1045C0009EE700BF80841E00CC5C0008FC5B0008F6
:1045D000045E0008E45C0008FC5C000810B500F014
:1045E00000446040B0F1FF4F03D316D947F6FF7087
:1045F00010E04FF0F06120F47F6020F00F00FBF737
:10460000A7FD00F58050B0F1786F01D94FF07860C8
:10461000C0F34F3040EA144010BD4FF4F840F9E7C2
:1046200010B4034620F0604421F06042C80FB0EBA4
:10463000D37F0FD0002B09DB002909DB944203D084
:1046400094422CBF0020012010BC7047A40CF3E75B
:10465000920CF3E7C3F38073C1F38070944204D0EB
:1046600094422CBF00200120EEE78342ECD1F7E713
:10467000021E06DB500512F0804F01D040F0020010
:104680007047D30043F00400F5E710F0040F07D1A2
:10469000430D10F0020F01D043F0804318467047DD
:1046A000C30843F00043F4E70022B2F57A7F08D252
:1046B000436803F00103DBB28B4204D0013292B2B3
:1046C000F3E700207047012070470000104B9B6902
:1046D00013F0700F1BD04DF804BD0D4B00229A61F2
:1046E0000C49D1E902BC1BF101024CF10003C1E904
:1046F0000223094B1B7823B9054B9B6913F0040F68
:1047000002D0034B054A9A605DF804BB70477047BE
:10471000006400401048002009480020808080008C
:10472000022900F2B380002800F0B38038B5038876
:10473000002B00F0B180B3F5806F00F2B0800379F8
:10474000002B00F0AF80042B00F2AF808378002BA9
:1047500000F0AE80102B00F2AE80C378002B00F08A
:10476000AD80082B00F2AD800C460546564A00236A
:10477000136053609360D360022914BF00210121AC
:10478000524A117052484361036823F002030360E8
:10479000036843F0010303600121FFF785FF002850
:1047A00057D04B4B61221A602B79013B1B0603F05B
:1047B0004073AA78013A120402F470221343EA7893
:1047C000013A120502F4E00213432A88013AC2F3C7
:1047D00009021343012C43D0002213433C4AD36106
:1047E0005369002B3FD13A48036823F0010303606B
:1047F0000021FFF759FF00283BD0354AD2F800329C
:1048000023F47C5323F00E0343F4606343F001036D
:10481000C2F80032D2F80032C3F305230E2B2FD199
:104820002B4B0020C3F804026FF07042C3F80C2237
:10483000284AC3F81422C3F84002C3F844020122F4
:10484000C3F81C22D3F8002222F00102C3F8002290
:1048500038BD1F4B4FF400421A606FF47A70F7E7CF
:104860004FF00042B9E71C4B1C4AE8211C4800F0FD
:104870003BF9174B4FF400421A60A0F2EA30E7E729
:10488000184B164AFE21164800F02EF96FF0010071
:1048900070476FF0010070476FF00100D8E76FF0CC
:1048A0000100D5E76FF00100D2E76FF00100CFE71C
:1048B0006FF00100CCE76FF00100C9E76FF0010075
:1048C000C6E76FF00100C3E7104800200948002048
:1048D00000640040AAAAAA0A745E0008505E00089C
:1048E000AC5E0008D45E0008002875D070B582B0B8
:1048F0000446036813F0005F71D1FFF7E7FE394B00
:104900009B6803F0E053B3F1E05F63D0354B9A68E6
:10491000C2F380628DF804209A68C2F3C0628DF8F9
:1049200005209B68C3F300738DF806300025FF2631
:1049300002E02E460135EDB2022D13D802AB2B4416
:1049400013F8043C002BF4D105F118031B01254A90
:10495000D058FFF79AFE01462068FFF761FE002855
:10496000E8D127E0FF2E27D0022E2CD8350105F103
:10497000804505F5CB45237B6B60E27AA37A1B0467
:1049800043EA0263627A43EA0223227A1343EB602A
:10499000E279A3791B0443EA0263627943EA0223C2
:1049A00022791343AB602068FFF762FE40F00100FC
:1049B0002860012002B070BD0B4B0C4A40F25D1123
:1049C0000B4800F091F80B4B084A40F26711084879
:1049D00000F08AF80026C9E76FF00100704706482A
:1049E000E8E700BF00640040205F0008605E000848
:1049F000AC5E0008305F000815FCFFFF002843D0C4
:104A00002DE978480546FFF761FE0023012B38D8D1
:104A10001F4C04EB03141F4A52F82360326812F053
:104A2000030F01D10133F1E7336813F0100F08D001
:104A30001949D1E900BC1BF101024CF10003C1E9A5
:104A400000232068FFF721FE2860636803F00F034E
:104A50002B73A268E3682A71C2F307216971C2F35C
:104A60000741A971120EEA712B72C3F307226A7211
:104A7000C3F30742AA721B0EEB7238233360012086
:104A800000E00020BDE878886FF00100704700BFAB
:104A9000B0650040485E000810480020002103E097
:104AA0000B4B5B58435004310A480B4B42189A4257
:104AB000F6D30A4A02E0002342F8043B084B9A422C
:104AC000F9D3FDF7BBF800F03FF8FBF7EDFC7047BA
:104AD0001C60000800000020700000207000002012
:104AE00044490020FEE700001FB51C46094B05465F
:104AF0001B68D86852B1084BCDE9013200912B46B2
:104B00002246064900F00EF800F0D8FB044B1A4686
:104B1000F2E700BF0C000020405F00084D5F000876
:104B20007B5F00080EB403B5014603AB054853F89C
:104B3000042B0068019300F065F802B05DF804EB07
:104B400003B070470C00002070B500250C4E0D4CD2
:104B5000A41BA410A54209D100F09CFF00250A4E19
:104B60000A4CA41BA410A54205D170BD56F82530EF
:104B700098470135EEE756F8253098470135F2E7BA
:104B80001460000814600008146000081860000831
:104B900010B5431E0A44914200D110BD11F8014BDB
:104BA00003F8014FF7E703460244934200D17047F0
:104BB00003F8011BF9E7936810B4013B002B9360E5
:104BC00007DA9469A34201DB0A2902D110BC00F084
:104BD000B5BA1368581C10601970084610BC7047AD
:104BE000F8B506460F461446D518AC4201D1002050
:104BF00007E03A4614F8011B3046FFF7DCFF431C80
:104C0000F3D1F8BD2DE9F04F9DB00C461746039344
:104C1000064618B183690BB900F048FC7B4B9C42F7
:104C200057D17468A38918075DD52369002B5AD022
:104C30000023099320238DF8293030234FF0010BF6
:104C40008DF82A30B846454615F8013B0BB1252BA7
:104C500054D1B8EB070A0BD053463A4621463046AA
:104C6000FFF7BEFF013000F0C280099B5344099357
:104C700098F80030002B00F0BA8000234FF0FF328C
:104C8000CDE90523049307938DF853301A93A84672
:104C9000052218F8011B5E4800F0F6FC049B78BB67
:104CA000D90644BF20228DF853201A0744BF2B2277
:104CB0008DF853202A782A2A2AD0A84600200A25CF
:104CC000079A414611F8013B303B092B69D960B383
:104CD00024E0504B9C4201D1B468A3E74E4B9C4268
:104CE00008BFF4689EE72146304600F079FA0028B4
:104CF0009ED04FF0FF301DB0BDE8F08FA846A2E770
:104D0000434A4546801A0BFA00F018430490BEE768
:104D1000039A111D12680391002A01DB079204E037
:104D2000524243F002030792049398F800302E2B6E
:104D30000ED198F801302A2B38D1039B08F10208D4
:104D40001A1D1B680392002BB8BF4FF0FF33059369
:104D5000324D032298F80010284600F095FC40B12F
:104D60004023401B03FA00F0049B08F101080343B1
:104D7000049398F800100622294808F101078DF8DD
:104D8000281000F081FC002837D0264B1BBB039B6A
:104D9000073323F0070308330393099B4B4409931C
:104DA00050E705FB0232012088468AE700230A25E6
:104DB000194608F101080593404610F8012B303AD6
:104DC000092A03D9002BC3D00591C1E705FB0121B6
:104DD00001238046F0E703AB00932246124B04A95F
:104DE0003046AFF30080B0F1FF3F8146D5D1A389B3
:104DF0005B063FF57EAF09987DE703AB0093224643
:104E0000094B04A9304600F087F8ECE7D45F0008AE
:104E1000805F0008F45F0008B45F0008865F000848
:104E20008A5F000800000000E14B00082DE9F04710
:104E300091461F468A680B6906469342B8BF1346DF
:104E4000C9F8003091F843200C46DDF8208012B1FB
:104E50000133C9F800302368990642BFD9F8003001
:104E60000233C9F80030256815F0060507D104F1B2
:104E7000190AE368D9F800209B1AAB4229DC94F8A0
:104E800043302268003318BF012392062ED404F168
:104E9000430239463046C047013021D02368E568D7
:104EA00003F00603042B18BF0025D9F800204FF0AB
:104EB000000908BFAD1AA368226908BF25EAE57595
:104EC0009342C4BF9B1AED181A344D451AD10020E5
:104ED00008E00123524639463046C047013003D12D
:104EE0004FF0FF30BDE8F0870135C2E73020E11810
:104EF00081F843005A1C94F845102244023382F88A
:104F00004310C4E70123224639463046C0470130EA
:104F1000E6D009F10109D8E72DE9F04301F1430C8E
:104F20000C46097E85B06E291746064698460C9AAF
:104F300000F0B38022D8632936D00AD8002900F0C7
:104F4000B980582900F0838004F1420584F84210AA
:104F500032E0642901D06929F6D12068136805067A
:104F600003F104012AD51B681160002B03DA2D22FE
:104F70005B4284F843206F480A2239E0732900F02D
:104F80009D8008D86F2920D07029DDD1236843F097
:104F90002003236003E0752917D07829D4D1782322
:104FA000654884F8453055E0136804F14205191D41
:104FB0001B68116084F8423001238CE01B6810F0FC
:104FC000400F116018BF1BB2CFE713682568181D8A
:104FD0001060280601D51B6802E06806FBD51B8817
:104FE0006F2914BF0A2208225248002184F8431076
:104FF0006568002DA560C0F29580216821F004014C
:105000002160002B3DD1002D40F08E806546082A9E
:105010000BD12368DB0708D5236962689A42DEBF9B
:10502000302305F8013C05F1FF35ACEB05032361A6
:10503000CDF800803B4603AA21463046FFF7F6FE36
:1050400001304DD14FF0FF3005B0BDE8F083394855
:1050500084F84510136821681D1D1B6815600A0639
:105060000BD5CA0744BF41F0200121601BB922685B
:1050700022F0200222601022B7E74D0648BF9BB203
:10508000EFE76546B3FBF2F102FB1133C35C05F8B1
:10509000013D0B460029F5D1B9E713682568181DB5
:1050A0006169106028061B6801D5196002E06A0674
:1050B000FBD51980002365462361B9E71368191DE4
:1050C00011601D6862680021284600F0DDFA08B111
:1050D000401B606063682361002384F84330A7E7C6
:1050E00023692A4639463046C0470130AAD0236892
:1050F0009B0713D4E068039B9842B8BF1846A3E708
:1051000001234A4639463046C04701309AD001351E
:10511000E368039A9B1AAB42F2DCEBE7002504F14B
:105120001909F5E7002BACD1037804F1420584F8A6
:1051300042306CE7915F0008A25F0008F8B50E46A8
:105140001446054618B183690BB900F0AFF9214B3D
:105150009C422AD16C68A369A360A3891A072ED543
:10516000236963B323692068F6B2C01A63693746BE
:10517000834204DC2146284600F02EF928BBA368B0
:105180000130013BA36023685A1C22601E706369D2
:10519000834204D0A389DB0719D50A2E17D12146F3
:1051A000284600F019F990B10FE00B4B9C4201D159
:1051B000AC68D0E7094B9C4208BFEC68CBE72146BE
:1051C000284600F00DF80028CCD04FF0FF373846C5
:1051D000F8BD00BFD45F0008F45F0008B45F0008AA
:1051E000324B70B51D6806460C4625B1AB6913B944
:1051F000284600F05BF92E4B9C420FD16C68B4F945
:105200000C309AB215072CD4D00611D40922326082
:1052100043F04003A3814FF0FF303EE0254B9C421A
:1052200001D1AC68EBE7244B9C4208BFEC68E6E791
:10523000510712D5616B41B104F14403994202D088
:10524000304600F02FFA00236363A38923F0240380
:10525000A3810023636023692360A38943F00803CB
:10526000A38123694BB9A38903F42073B3F5007FAD
:1052700003D02146304600F0C7F9A28912F001039D
:105280000CD00023A36063695B42A361236953B917
:10529000B4F90C3013F08000BAD170BD920758BF3A
:1052A0006369A360F2E70020F7E700BF0C0000206D
:1052B000D45F0008F45F0008B45F000808B506205A
:1052C00000F0CEFA012000F0E3FB00008A892DE90E
:1052D000F041054610070C4658D44B68002B05DCFE
:1052E0000B6C002B02DC0020BDE8F081E66A002E8A
:1052F000F9D0002312F480522F68216A2B6032D03B
:10530000606DA3895A0705D56368C01A636B0BB13A
:10531000236CC01A00230246E66A216A2846B04779
:10532000431CA38906D129681D2948D8294ACA40A7
:10533000D60744D5002262602269D904226004D5D0
:10534000421C01D12B6803B96065616B2F60002995
:10535000C9D004F14403994202D0284600F0A2F9D2
:1053600000206063C0E701232846B047411CC8D134
:105370002B68002BC5D01D2B01D0162B01D12F601F
:10538000B1E7A38943F04003A381ADE70F69002F84
:10539000A9D0930718BF00230E6808BF4B69A6EB7E
:1053A00007080F608B60B8F1000F9CDD43463A465A
:1053B000216A2846A66AB047002806DCA38943F084
:1053C0004003A3814FF0FF308EE70744A8EB0008AD
:1053D000E9E700BF0100402038B50B6905460C46DF
:1053E000DBB118B183690BB900F060F80C4B9C423B
:1053F00009D16C68B4F90C307BB121462846BDE870
:105400003840FFF763BF074B9C4201D1AC68F1E71E
:10541000054B9C4208BFEC68ECE7002038BD00BF9C
:10542000D45F0008F45F0008B45F0008002310B5E3
:105430000446C0E90033836081814366C281C0E9CC
:1054400004338361194608225C30FFF7ACFB054B3F
:1054500024626362044BA362044BE362044B236344
:1054600010BD00BF99580008BB580008F358000849
:1054700017590008014900F085B800BFD95300084A
:1054800070B568254A1E55430E4605F1740100F0BB
:1054900055F9044640B10021C0E900160C30A06067
:1054A00005F16802FFF77FFB204670BD836910B5E8
:1054B000044633BBC0E912330365124B124A1B6822
:1054C0008262984204BF0123836100F01FF860608C
:1054D000204600F01BF8A060204600F017F80022DC
:1054E000E06004216068FFF7A1FF01220921A068A4
:1054F000FFF79CFF02221221E068FFF797FF0123CC
:10550000A36110BD7C5F000875540008F8B51B4B03
:1055100007461E68B36913B93046FFF7C7FF483620
:10552000D6E90134013B03D5336833B13668F7E778
:10553000B4F90C506DB16834F4E704213846FFF734
:105540009FFF30600028F1D10C2304463B602046C9
:10555000F8BD0B4B6566C4E90055A560C4E9033589
:10556000C4E905550822294604F15C00FFF71BFB3E
:10557000C4E90D55C4E91255E9E700BF7C5F000896
:105580000100FFFF2DE9F84380468946002600F11F
:10559000480414B93046BDE8F883D4E90175013FE9
:1055A00001D52468F5E7AB89012B07D9B5F90E3091
:1055B000013303D029464046C84706436835EEE725
:1055C00070B50E46B1F90E1096B0002914461D466E
:1055D00007DA00232B60B3891A0610D44FF48063D6
:1055E0000EE06A4600F0BEF90028F2DB019A02F4F0
:1055F0007042A2F500535A425A412A60EEE7402316
:105600000020236016B070BD8B8973B59D070646D8
:105610000C4607D504F1470323602361012363612E
:1056200002B070BD01AB6A46FFF7CAFF009905469C
:10563000304600F083F848B9B4F90C309A05EFD43D
:1056400023F0030343F00203A381E3E70D4BB362AE
:10565000A389206043F08003A381009B20616361E4
:10566000019B5BB1B4F90E10304600F08DF928B102
:10567000A38923F0030343F00103A381A3891D43FE
:10568000A581CDE77554000810B5C9B20244904217
:10569000034601D1002303E01C7801308C42F6D18F
:1056A000184610BD38B50546002943D051F8043CD2
:1056B0000C1F002BB8BFE41800F088F91E4A1368CD
:1056C000104633B9636014602846BDE8384000F0E6
:1056D0007EB9A3420BD921686218934201BF1A68B0
:1056E0005B685218226063600460EDE713465A68F5
:1056F0000AB1A242FAD919685818A0420BD1206801
:105700000144581882421960DED110685268014481
:1057100019605A60D8E702D90C232B60D4E72068BF
:1057200021188A4201BF116852680918216062601D
:105730005C60C9E738BD00BF2048002070B5CD1CB3
:1057400025F0030508350C2D38BF0C25002D064625
:1057500001DBA94203D90C233360002070BD00F0A7
:1057600035F9214A1468214691B9204C23681BB9A8
:10577000304600F03DF820602946304600F038F809
:10578000431C24D10C233046336000F020F9E4E7B9
:105790000B685B1B18D40B2B0FD90B60CC18CD50AA
:1057A000304600F014F904F10B00231D20F007002F
:1057B000C31AD3D05A42E250D0E74B688C4216BF8E
:1057C000636013600C46EBE70C464968CCE7C41CE9
:1057D00024F00304A04205D0211A304600F008F856
:1057E0000130CFD02560DBE720480020244800208E
:1057F00038B50023054C05460846236000F032F911
:10580000431C02D1236803B12B6038BD40490020FE
:105810001F2938B504460D4604D9162303604FF0FE
:10582000FF3038BD426C12B152F821304BB92046DE
:1058300000F030F82A4601462046BDE8384000F026
:1058400017B8012B0AD0591C03D11623036001207D
:10585000E7E70024284642F8254098470020E0E783
:10586000024B01461868FFF7D3BF00BF0C000020B1
:1058700038B50023064C054608461146236000F063
:10588000D9F8431C02D1236803B12B6038BD00BF97
:105890004049002000F0BEB810B50C46B1F90E101A
:1058A00000F096F80028ABBF636DA3891B1823F4A2
:1058B0008053ACBF6365A38110BD2DE9F0411F4645
:1058C0008B890546DB050C46164605D502230022CA
:1058D000B1F90E1000F068F8A389324623F4805322
:1058E000A381B4F90E103B462846BDE8F04100F014
:1058F00017B810B50C46B1F90E1000F055F8431C5E
:10590000A38915BF606523F4805343F48053A381BA
:1059100018BFA38110BDB1F90E1000F013B800003C
:1059200038B50546084611460022054C22601A4645
:1059300000F0A6F8431C02D1236803B12B6038BDE8
:105940004049002038B50023054C05460846236031
:1059500000F050F8431C02D1236803B12B6038BD1E
:105960004049002038B50023064C0546084611463C
:10597000236000F047F8431C02D1236803B12B6079
:1059800038BD00BF4049002038B50023054C05460E
:105990000846236000F046F8431C02D1236803B197
:1059A0002B6038BD4049002038B5054608461146F1
:1059B0000022054C22601A4600F044F8431C02D134
:1059C000236803B12B6038BD404900207047704701
:1059D00038B50546084611460022054C22601A4695
:1059E00000F038F8431C02D1236803B12B6038BDA6
:1059F000404900205822024B4FF0FF301A60704798
:105A0000404900205822024B4FF0FF301A60704787
:105A1000404900205822024B4FF0FF301A60704777
:105A2000404900205822024B00201A60704700BFF6
:105A3000404900205822024B4FF0FF301A60704757
:105A4000404900205822024B4FF0FF301A60704747
:105A5000404900205822024B4FF0FF301A60704737
:105A600040490020044A05491368002B08BF0B4633
:105A70001844106018467047284800204849002004
:105A80005822024B4FF0FF301A6070474049002007
:105A9000FEE700BFF8B500BFF8BC08BC9E467047E3
:0C5AA000F8B500BFF8BC08BC9E4670477B
:105AAC00105B0008D104000800000000000000009A
:105ABC0000080000085B0008E50400080000000076
:105ACC00000000000004000002030405060708099A
